S01400004C43445F464F4445524F534F2E737265637D
S11300000C9434000C9451000C9451000C94510045
S11300100C9451000C94DD040C9451000C94510088
S11300200C9451000C9481000C9451000C945100D8
S11300300C9451000C9451000C9451000C945100F8
S11300400C9451000C9451000C9451000C945100E8
S11300500C9451000C9451000C9451000C945100D8
S11300600C9451000C94510011241FBECFEFD8E022
S1130070DEBFCDBF11E0A0E0B1E0E0E7FFE002C0E9
S113008005900D92A032B107D9F721E0A0E2B1E0CA
S113009001C01D92A333B207E1F70E94FB020C9446
S11300A0B6070C940000FC01408121E030E002C05E
S11300B0220F331F6A95E2F7242B20830895FC0155
S11300C0908121E030E002C0220F331F6A95E2F7ED
S11300D02095292320830895FC01808190E002C0AB
S11300E0959587956A95E2F7817008951092B2000C
S11300F0E0E7F0E0808181608083789410922001B1
S113010008951F920F920FB60F9211248F9380912E
S113011020018F5F809320018F910F900FBE0F906D
S11301201F901895E2EBF0E020818091200110826D
S11301301092200190E0BC01660F771F880F991F71
S1130140880F991F880F991F680F791F620F711DFF
S1130150072E000C880B990B20E034E244EF50E0AA
S11301600E947507CA01B9010E9453060895289A8E
S1130170089528980895299A0895299808950E9421
S1130180BB008AE18A95F1F700C00E94BD00089582
S1130190CF93DF93C82FDFB7F8948BB18F708BB9EF
S11301A08BB19C2F907F892B8BB90E94BF008BB1A0
S11301B08F708BB92BB130E1C39FC0011124822B06
S11301C08BB90E94BF00DFBF8FEB90E00197F1F77E
S11301D000C00000DF91CF910895CF93C82F0E94F3
S11301E0B9008C2F0E94C800C150C23030F487EF90
S11301F090E20197F1F700C00000CF910895883292
S113020048F4623038F490E4699F800D11248068CA
S11302100E94ED000895482F50E09A0120523109C0
S11302201AF43195219531092830310508F19A01E4
S11302302C5431091AF431952195310928303105AE
S1130240C8F09A01285731091AF4319521953109DA
S11302502830310588F0883088F0445B51091AF45D
S11302605195419551094830510550F080E0089569
S113027081E0089582E0089584E0089583E008957C
S113028085E00895ECE7F0E010828081887F808328
S113029067E08AE790E00E94530067E08CE790E013
S11302A00E945F0066E08CE790E00E94530060E0EB
S11302B08AE790E00E94530061E08AE790E00E94A0
S11302C0530062E08AE790E00E94530066E08AE708
S11302D090E00E945300089580913101882331F009
S11302E081E00E94ED0082E00E94ED000895CF932A
S11302F080913101811162C0CFB7F8948AB1806FC7
S11303008AB984B1836084B962E084E290E00E9497
S11303105F000E94BD002FEF83EF91E021508040E9
S11303209040E1F700C000000E94B9008BB18F70CB
S11303308BB98BB180638BB90E94BB008FE19EE4C3
S11303400197F1F700C000000E94BD008BB18F70CF
S11303508BB98BB180638BB90E94BB0087E592E0B7
S11303600197F1F700C000000E94BD008BB18F70AF
S11303708BB98BB180638BB90E94BF008FEB90E087
S11303800197F1F700C000008BB18F708BB95D9AB3
S11303900E94BF008FEB90E00197F1F700C00000CE
S11303A0809131018F5F8093310188E20E94ED00DA
S11303B08CE00E94ED000E946C01CFBFCF910895A4
S11303C00E9477010E9442010895CF93DF9364E075
S11303D08AE790E00E946C00882309F455C0C0911C
S11303E07800809179008370D0E0D82B30912A0175
S11303F03323C1F1EBE2F1E020E081919191AE0170
S1130400481B590BCA0199231CF4919581959109B4
S1130410099720F42F5F2313F0CF232F2330F9F40F
S1130420EBE2F1E02081318182819381820F931F7D
S113043024813581820F931F8C0F9D1F959587957D
S113044095958795959587959595879595838483B7
S11304500E940B018093290110922A0103C03213D8
S113046010922A0180912A01E82FF0E0EE0FFF1F7D
S1130470E55DFE4FD183C0838F5F80932A0166E0E0
S11304808AE790E00E94530080912901DF91CF9187
S11304900895EF92FF920F931F93CF937C01909155
S11304A03101992311F1603100F54230F0F4062F47
S11304B0642F802F0E94FF000E94B70010E00031DB
S11304C011059CF4F7018081882379F0C0E0CF5FA7
S11304D00E94C800C8018C0F911D409734F4F701A5
S11304E0EC0FF11D80818111F2CFCF911F910F91FB
S11304F0FF90EF90089540E060E080E091E00E947A
S1130500490241E060E080E091E00E9449020895E0
S113051040E066E081E191E00E94490240E06EE043
S113052087E191E00E94490241E066E08AE191E0BE
S11305300E94490241E06EE087E191E00E94490295
S11305400895E5E2F1E099E2899F912D11249295B5
S11305509F7020E3290F2083282F34E6939F2019CE
S113056011249DEC299F212D11242695269526954D
S1130570205D2183899F912D1124969596959695BA
S1130580990F292F220F220F920F891B805D8283DE
S113059040E06BE0CF010E9449020895E1E2F1E0FE
S11305A099E2899F912D112492959F7020E3290F40
S11305B02083282F34E6939F201911249DEC299F32
S11305C0212D1124269526952695205D2183899F2A
S11305D0912D1124969596959695990F292F220F72
S11305E0220F920F891B805D828341E06BE0CF0173
S11305F00E9449020895CF93DF93CDB7DEB7689781
S11306000FB6F894DEBF0FBECDBF0E94E0010E947A
S113061014050E947B020E9488020E94760063E017
S11306208AE290E00E945300F12C21E02D8B1D867C
S11306301E861F86188A198A1A8A1B8A1C8A19869A
S11306401A861B861C86D12C10E01D821E821F82F6
S11306501886412C512C0F2EF0EE6F2EF02D68943D
S1130660772476F8B42CA52C962C872C7D2C612E1F
S11306700E94E5018E8B0E942F056091320170E08B
S113068080E090E00E94530620E030E048E651E428
S11306900E94080720E030E04FE753E40E94B005D1
S11306A069837A838B839C838E89F81609F461C0ED
S11306B0882309F45EC0833009F443C028F48130F0
S11306C099F0823029F155C0EE89E430F1F1E5303A
S11306D009F04FC0B12CA12C0F2EF0EE9F2EF02D5F
S11306E06894882486F845C0FD896F2F70E080E007
S11306F090E00E9453069B01AC016B2D7A2D892D4D
S1130700982D0E943F05B62EA72E982E892E31C013
S11307102D89622F70E0719561957109072E000C87
S1130720880B990B0E9453069B01AC016B2D7A2D0B
S1130730892D982D0E943F05B62EA72E982E892E1E
S113074018C08D898F5F8D8B14C0ED896E2F70E07A
S113075080E090E00E9453069B01AC016B2D7A2D42
S1130760892D982D0E94AB0588231CF4FD89F15036
S1130770FD8B29813A814B815C816B2D7A2D892DEA
S1130780982D0E94AB058823A4F463E088E290E0EE
S11307900E9453002B2D3A2D492D582D69817A81C1
S11307A08B819C810E943E05262E372E082F192FFF
S11307B013C063E088E290E00E945F0029813A81DF
S11307C04B815C816B2D7A2D892D982D0E943E05DD
S11307D0262E372E082F192F0E9492007C012CE51B
S11307E03FE842E05FE3622D732D802F912F0E943A
S11307F0AB0588230CF455C0B701FF0C880B990B8B
S11308000E9453066B017C0120E030E040E050E0A0
S11308100E94AB05882309F46DC029853A854B8570
S11308205C85672D762D852D942D0E9408076B011C
S11308307C0129893A894B895C896D817E818F810C
S113084098850E9408079B01AC01C701B6010E946C
S11308503F056B017C01222D332D402F512F6D85D7
S11308607E858F8598890E9408079B01AC01C7018A
S1130870B6010E943F05762E672E582E492E20E0A1
S113088030E040E85FE30E940307181674F4712C0B
S1130890612C6894552457F80F2EFFE34F2EF02D4A
S11308A004C0712C612C512C412C20E030E040E23A
S11308B051E46B2D7A2D892D982D0E9408070E94F2
S11308C02206862F90E00E94A10220E030E040E260
S11308D051E469817A818B819C810E9408070E947E
S11308E02206862F0E94CE02FE882D823E820F832E
S11308F01887BECE20E030E040E252E4C701B601E2
S11309000E9408076D877E878F87988B20E030E0F0
S113091048E452E4C701B6010E94080769877A8750
S11309208B879C8720E030E040E050E40E943F0544
S11309306B017C0129853A854B855C8560E070E01C
S113094080E090E40E943E05A70196010E94B00554
S113095069877A878B879C8720E030E040E050E409
S11309606D857E858F8598890E943E052FE832EC3F
S113097045E75DE30E940807A70196010E94B005C0
S1130980698B7A8B8B8B9C8B20E030E040E050E4C9
S11309906D857E858F8598890E943F052FE832EC0E
S11309A045E75DE30E940807A70196010E94B00590
S11309B06D877E878F87988B30CF1F920F920FB6EB
S11309C00F9211242F933F934F935F936F937F93D1
S11309D08F939F93AF93BF93EF93FF934A9B04C06E
S11309E016BC83E085BD0FC015BCA89B04C08FEF67
S11309F08093320103C086B58093320160E085E3C1
S1130A0090E00E945300FF91EF91BF91AF919F91AD
S1130A108F917F916F915F914F913F912F910F90A3
S1130A200FBE0F901F90189562E08AE290E00E943A
S1130A305F0062E089E290E00E94530061E087E297
S1130A4090E00E94530062E088E690E00E94530028
S1130A5062E08DE690E00E9453007894089561E08E
S1130A6088E290E00E94530085E38A95F1F7000044
S1130A7061E088E290E00E945F0008955058BB272F
S1130A80AA270E9456050C94C9060E94BB0638F09A
S1130A900E94C20620F039F49F3F19F426F40C9406
S1130AA0B8060EF4E095E7FB0C94B206E92F0E9419
S1130AB0DA0658F3BA17620773078407950720F01C
S1130AC079F4A6F50C94FC060EF4E0950B2EBA2FDF
S1130AD0A02D0B01B90190010C01CA01A001112440
S1130AE0FF27591B99F0593F50F4503E68F11A16EC
S1130AF0F040A22F232F342F4427585FF3CF46957D
S1130B0037952795A795F0405395C9F77EF41F169E
S1130B10BA0B620B730B840BBAF09150A1F0FF0F68
S1130B20BB1F661F771F881FC2F70EC0BA0F621F54
S1130B30731F841F48F4879577956795B795F79544
S1130B409E3F08F0B0CF9395880F08F09927EE0FD9
S1130B509795879508950E948E0608F481E008957C
S1130B600E94C4050C94C9060E94C20658F00E9453
S1130B70BB0640F029F45F3F29F00C94B2065111F2
S1130B800C94FD060C94B8060E94DA0668F39923C7
S1130B90B1F3552391F3951B550BBB27AA27621775
S1130BA07307840738F09F5F5F4F220F331F441F82
S1130BB0AA1FA9F335D00E2E3AF0E0E832D09150B6
S1130BC05040E695001CCAF72BD0FE2F29D0660FA3
S1130BD0771F881FBB1F261737074807AB07B0E8E6
S1130BE009F0BB0B802DBF01FF2793585F4F3AF0EC
S1130BF09E3F510578F00C94B2060C94FD065F3FBD
S1130C00E4F3983ED4F3869577956795B795F79571
S1130C109F5FC9F7880F911D9695879597F9089559
S1130C20E1E0660F771F881FBB1F621773078407F5
S1130C30BA0720F0621B730B840BBA0BEE1F88F704
S1130C40E09508950E94E20688F09F5798F0B92F26
S1130C509927B751B0F0E1F0660F771F881F991FED
S1130C601AF0BA95C9F714C0B13091F00E94FC068D
S1130C70B1E008950C94FC06672F782F8827B85F9D
S1130C8039F0B93FCCF3869577956795B395D9F745
S1130C903EF490958095709561957F4F8F4F9F4F4F
S1130CA00895E89409C097FB3EF49095809570955B
S1130CB061957F4F8F4F9F4F9923A9F0F92F96E9A4
S1130CC0BB279395F695879577956795B795F11119
S1130CD0F8CFFAF4BB0F11F460FF1BC06F5F7F4FB6
S1130CE08F4F9F4F16C0882311F096E911C07723C8
S1130CF021F09EE8872F762F05C0662371F096E8D1
S1130D00862F70E060E02AF09A95660F771F881F9F
S1130D10DAF7880F9695879597F90895990F000843
S1130D20550FAA0BE0E8FEEF16161706E807F907B9
S1130D30C0F012161306E407F50798F0621B730B54
S1130D40840B950B39F40A2661F0232B242B252BD5
S1130D5021F408950A2609F4A140A6958FEF811D78
S1130D60811D089597F99F6780E870E060E0089519
S1130D709FEF80EC089500240A94161617061806AF
S1130D800906089500240A9412161306140605068B
S1130D900895092E0394000C11F4882352F0BB0F1C
S1130DA040F4BF2B11F460FF04C06F5F7F4F8F4F7F
S1130DB09F4F089557FD9058440F551F59F05F3FBA
S1130DC071F04795880F97FB991F61F09F3F79F069
S1130DD087950895121613061406551FF2CF4695EB
S1130DE0F1DF08C0161617061806991FF1CF86956D
S1130DF07105610508940895E894BB276627772751
S1130E00CB0197F908950E948E0608F48FEF089598
S1130E100E941B070C94C9060E94BB0638F00E946E
S1130E20C20620F0952311F00C94B2060C94B80677
S1130E3011240C94FD060E94DA0670F3959FC1F309
S1130E40950F50E0551F629FF001729FBB27F00D74
S1130E50B11D639FAA27F00DB11DAA1F649F6627C9
S1130E60B00DA11D661F829F2227B00DA11D621F18
S1130E70739FB00DA11D621F839FA00D611D221FD2
S1130E80749F3327A00D611D231F849F600D211DB6
S1130E90822F762F6A2F11249F5750409AF0F1F039
S1130EA088234AF0EE0FFF1FBB1F661F771F881FA2
S1130EB091505040A9F79E3F510580F00C94B20622
S1130EC00C94FD065F3FE4F3983ED4F38695779542
S1130ED06795B795F795E7959F5FC1F7FE2B880F48
S1130EE0911D9695879597F90895052E97FB1EF405
S1130EF000940E948C0757FD07D00E94940707FCBA
S1130F0003D04EF40C948C07509540953095219560
S1130F103F4F4F4F5F4F0895909580957095619521
S1130F207F4F8F4F9F4F0895A1E21A2EAA1BBB1B20
S1130F30FD010DC0AA1FBB1FEE1FFF1FA217B307A1
S1130F40E407F50720F0A21BB30BE40BF50B661FB7
S1130F50771F881F991F1A9469F76095709580957B
S1130F6090959B01AC01BD01CF010895F894FFCF8A
S1130F70202020202020202020202020202020206D
S1130F80002C4374723D006D6D002C506F733D0056
S9030000FC
